{
  "contractName": "YieldFarming",
  "abi": [
    {
      "inputs": [
        {
          "internalType": "contract XToken",
          "name": "_xtoken",
          "type": "address"
        }
      ],
      "payable": false,
      "stateMutability": "nonpayable",
      "type": "constructor"
    },
    {
      "constant": true,
      "inputs": [
        {
          "internalType": "address",
          "name": "",
          "type": "address"
        }
      ],
      "name": "depositBalance",
      "outputs": [
        {
          "internalType": "uint256",
          "name": "",
          "type": "uint256"
        }
      ],
      "payable": false,
      "stateMutability": "view",
      "type": "function"
    },
    {
      "constant": true,
      "inputs": [
        {
          "internalType": "uint256",
          "name": "",
          "type": "uint256"
        }
      ],
      "name": "depositers",
      "outputs": [
        {
          "internalType": "address",
          "name": "",
          "type": "address"
        }
      ],
      "payable": false,
      "stateMutability": "view",
      "type": "function"
    },
    {
      "constant": true,
      "inputs": [
        {
          "internalType": "address",
          "name": "",
          "type": "address"
        }
      ],
      "name": "hasDeposited",
      "outputs": [
        {
          "internalType": "bool",
          "name": "",
          "type": "bool"
        }
      ],
      "payable": false,
      "stateMutability": "view",
      "type": "function"
    },
    {
      "constant": true,
      "inputs": [
        {
          "internalType": "address",
          "name": "",
          "type": "address"
        }
      ],
      "name": "isDepositing",
      "outputs": [
        {
          "internalType": "bool",
          "name": "",
          "type": "bool"
        }
      ],
      "payable": false,
      "stateMutability": "view",
      "type": "function"
    },
    {
      "constant": true,
      "inputs": [],
      "name": "owner",
      "outputs": [
        {
          "internalType": "address",
          "name": "",
          "type": "address"
        }
      ],
      "payable": false,
      "stateMutability": "view",
      "type": "function"
    },
    {
      "constant": true,
      "inputs": [],
      "name": "xtoken",
      "outputs": [
        {
          "internalType": "contract XToken",
          "name": "",
          "type": "address"
        }
      ],
      "payable": false,
      "stateMutability": "view",
      "type": "function"
    },
    {
      "constant": false,
      "inputs": [
        {
          "internalType": "uint256",
          "name": "_amount",
          "type": "uint256"
        }
      ],
      "name": "depositTokens",
      "outputs": [],
      "payable": false,
      "stateMutability": "nonpayable",
      "type": "function"
    },
    {
      "constant": false,
      "inputs": [],
      "name": "withdrawTokens",
      "outputs": [],
      "payable": false,
      "stateMutability": "nonpayable",
      "type": "function"
    },
    {
      "constant": false,
      "inputs": [],
      "name": "issueTokens",
      "outputs": [],
      "payable": false,
      "stateMutability": "nonpayable",
      "type": "function"
    }
  ],
  "bytecode": "0x60806040526040518060400160405280600d81526020017f5969656c64204661726d696e67000000000000000000000000000000000000008152506000908051906020019061004f929190610118565b5034801561005c57600080fd5b50604051610c39380380610c398339818101604052602081101561007f57600080fd5b810190808051906020019092919050505080600160006101000a81548173ffffffffffffffffffffffffffffffffffffffff021916908373ffffffffffffffffffffffffffffffffffffffff16021790555033600260006101000a81548173ffffffffffffffffffffffffffffffffffffffff021916908373ffffffffffffffffffffffffffffffffffffffff160217905550506101bd565b828054600181600116156101000203166002900490600052602060002090601f016020900481019282601f1061015957805160ff1916838001178555610187565b82800160010185558215610187579182015b8281111561018657825182559160200191906001019061016b565b5b5090506101949190610198565b5090565b6101ba91905b808211156101b657600081600090555060010161019e565b5090565b90565b610a6d806101cc6000396000f3fe608060405234801561001057600080fd5b50600436106100935760003560e01c80638da5cb5b116100665780638da5cb5b14610152578063956501bb1461019c578063dd49756e146101f4578063f2c16e6f14610222578063f790c8821461027e57610093565b80631718a68f1461009857806319b02120146100e257806360ab58521461013e5780638d8f2adb14610148575b600080fd5b6100a06102ec565b604051808273ffffffffffffffffffffffffffffffffffffffff1673ffffffffffffffffffffffffffffffffffffffff16815260200191505060405180910390f35b610124600480360360208110156100f857600080fd5b81019080803573ffffffffffffffffffffffffffffffffffffffff169060200190929190505050610312565b604051808215151515815260200191505060405180910390f35b610146610332565b005b610150610589565b005b61015a610779565b604051808273ffffffffffffffffffffffffffffffffffffffff1673ffffffffffffffffffffffffffffffffffffffff16815260200191505060405180910390f35b6101de600480360360208110156101b257600080fd5b81019080803573ffffffffffffffffffffffffffffffffffffffff16906020019092919050505061079f565b6040518082815260200191505060405180910390f35b6102206004803603602081101561020a57600080fd5b81019080803590602001909291905050506107b7565b005b6102646004803603602081101561023857600080fd5b81019080803573ffffffffffffffffffffffffffffffffffffffff1690602001909291905050506109dc565b604051808215151515815260200191505060405180910390f35b6102aa6004803603602081101561029457600080fd5b81019080803590602001909291905050506109fc565b604051808273ffffffffffffffffffffffffffffffffffffffff1673ffffffffffffffffffffffffffffffffffffffff16815260200191505060405180910390f35b600160009054906101000a900473ffffffffffffffffffffffffffffffffffffffff1681565b60066020528060005260406000206000915054906101000a900460ff1681565b600260009054906101000a900473ffffffffffffffffffffffffffffffffffffffff1673ffffffffffffffffffffffffffffffffffffffff163373ffffffffffffffffffffffffffffffffffffffff16146103f5576040517f08c379a00000000000000000000000000000000000000000000000000000000081526004018080602001828103825260148152602001807f63616c6c6572206d757374206265206f776e657200000000000000000000000081525060200191505060405180910390fd5b60008090505b6003805490508110156105865760006003828154811061041757fe5b9060005260206000200160009054906101000a900473ffffffffffffffffffffffffffffffffffffffff1690506000600460008373ffffffffffffffffffffffffffffffffffffffff1673ffffffffffffffffffffffffffffffffffffffff168152602001908152602001600020549050600081111561057757600160009054906101000a900473ffffffffffffffffffffffffffffffffffffffff1673ffffffffffffffffffffffffffffffffffffffff1663a9059cbb83836040518363ffffffff1660e01b8152600401808373ffffffffffffffffffffffffffffffffffffffff1673ffffffffffffffffffffffffffffffffffffffff16815260200182815260200192505050602060405180830381600087803b15801561053a57600080fd5b505af115801561054e573d6000803e3d6000fd5b505050506040513d602081101561056457600080fd5b8101908080519060200190929190505050505b505080806001019150506103fb565b50565b6000600460003373ffffffffffffffffffffffffffffffffffffffff1673ffffffffffffffffffffffffffffffffffffffff16815260200190815260200160002054905060008111610643576040517f08c379a00000000000000000000000000000000000000000000000000000000081526004018080602001828103825260138152602001807f62616c616e63652063616e6e6f7420626520300000000000000000000000000081525060200191505060405180910390fd5b3373ffffffffffffffffffffffffffffffffffffffff166108fc829081150290604051600060405180830381858888f1935050505061068157600080fd5b6000600460003373ffffffffffffffffffffffffffffffffffffffff1673ffffffffffffffffffffffffffffffffffffffff168152602001908152602001600020819055506000600660003373ffffffffffffffffffffffffffffffffffffffff1673ffffffffffffffffffffffffffffffffffffffff16815260200190815260200160002060006101000a81548160ff0219169083151502179055506000600560003373ffffffffffffffffffffffffffffffffffffffff1673ffffffffffffffffffffffffffffffffffffffff16815260200190815260200160002060006101000a81548160ff02191690831515021790555050565b600260009054906101000a900473ffffffffffffffffffffffffffffffffffffffff1681565b60046020528060005260406000206000915090505481565b6000811161082d576040517f08c379a00000000000000000000000000000000000000000000000000000000081526004018080602001828103825260108152602001807f616d6f756e742063616e7420626520300000000000000000000000000000000081525060200191505060405180910390fd5b80600460003373ffffffffffffffffffffffffffffffffffffffff1673ffffffffffffffffffffffffffffffffffffffff16815260200190815260200160002081905550600560003373ffffffffffffffffffffffffffffffffffffffff1673ffffffffffffffffffffffffffffffffffffffff16815260200190815260200160002060009054906101000a900460ff166109295760033390806001815401808255809150509060018203906000526020600020016000909192909190916101000a81548173ffffffffffffffffffffffffffffffffffffffff021916908373ffffffffffffffffffffffffffffffffffffffff160217905550505b6001600660003373ffffffffffffffffffffffffffffffffffffffff1673ffffffffffffffffffffffffffffffffffffffff16815260200190815260200160002060006101000a81548160ff0219169083151502179055506001600560003373ffffffffffffffffffffffffffffffffffffffff1673ffffffffffffffffffffffffffffffffffffffff16815260200190815260200160002060006101000a81548160ff02191690831515021790555050565b60056020528060005260406000206000915054906101000a900460ff1681565b60038181548110610a0957fe5b906000526020600020016000915054906101000a900473ffffffffffffffffffffffffffffffffffffffff168156fea265627a7a723158206bfcca1d8339823545f8c77c2c33f8dc5ff57ff1062a7bab2b37652e483a3a3264736f6c63430005100032",
  "source": "pragma solidity 0.5.16;\n\nimport './XToken.sol';\n\ncontract YieldFarming {\n\n    string name = 'Yield Farming';\n    XToken public xtoken;\n    address public owner;\n\n    address[] public depositers;\n    mapping(address => uint256) public depositBalance;\n    mapping(address => bool) public hasDeposited;\n    mapping(address => bool) public isDepositing;\n\n    constructor(XToken _xtoken) public {\n        xtoken = _xtoken;\n        owner = msg.sender;\n    }\n\n     // deposits tokens in its internal storage\n    function depositTokens(uint256 _amount) public {\n         require(_amount > 0, 'amount cant be 0');\n\n         depositBalance[msg.sender] = _amount;\n\n       // track if deposited\n       if(!hasDeposited[msg.sender]){\n           depositers.push(msg.sender);\n       }\n\n       //update depositing status\n       isDepositing[msg.sender] = true;\n       hasDeposited[msg.sender] = true;\n    }\n\n    // TODO add value and to params\n    function withdrawTokens() public {\n        // check balance\n        uint256 balance = depositBalance[msg.sender];\n\n        require(balance > 0, 'balance cannot be 0');\n\n        // in case of failure revert transaction\n        if(!msg.sender.send(balance))\n            revert();\n\n        depositBalance[msg.sender] = 0;\n\n        isDepositing[msg.sender] = false;\n        hasDeposited[msg.sender] = false;\n    }\n\n    function issueTokens() public {\n        require(msg.sender == owner, 'caller must be owner');\n\n        for(uint256 i = 0; i < depositers.length; i++){\n            address recepient = depositers[i];\n            uint256 balance = depositBalance[recepient];\n            if(balance > 0) {\n                xtoken.transfer(recepient, balance);\n            }\n        }\n    }\n}",
  "sourcePath": "/Users/tarasrohovets/Success/blockchain/ethereum_defi_app/src/contracts/YieldFarming.sol",
  "compiler": {
    "name": "solc",
    "version": "0.5.16+commit.9c3226ce.Emscripten.clang"
  },
  "schemaVersion": "3.2.4",
  "updatedAt": "2020-10-03T23:59:56.260Z",
  "networkType": "ethereum",
  "devdoc": {
    "methods": {}
  },
  "userdoc": {
    "methods": {}
  }
}