{
  "contractName": "DEX",
  "abi": [
    {
      "inputs": [
        {
          "internalType": "address",
          "name": "token_addr",
          "type": "address"
        }
      ],
      "stateMutability": "nonpayable",
      "type": "constructor"
    },
    {
      "inputs": [
        {
          "internalType": "address",
          "name": "",
          "type": "address"
        }
      ],
      "name": "liquidity",
      "outputs": [
        {
          "internalType": "uint256",
          "name": "",
          "type": "uint256"
        }
      ],
      "stateMutability": "view",
      "type": "function",
      "constant": true
    },
    {
      "inputs": [],
      "name": "totalLiquidity",
      "outputs": [
        {
          "internalType": "uint256",
          "name": "",
          "type": "uint256"
        }
      ],
      "stateMutability": "view",
      "type": "function",
      "constant": true
    },
    {
      "inputs": [
        {
          "internalType": "uint256",
          "name": "tokens",
          "type": "uint256"
        }
      ],
      "name": "init",
      "outputs": [
        {
          "internalType": "uint256",
          "name": "",
          "type": "uint256"
        }
      ],
      "stateMutability": "payable",
      "type": "function",
      "payable": true
    },
    {
      "inputs": [
        {
          "internalType": "uint256",
          "name": "input_amount",
          "type": "uint256"
        },
        {
          "internalType": "uint256",
          "name": "input_reserve",
          "type": "uint256"
        },
        {
          "internalType": "uint256",
          "name": "output_reserve",
          "type": "uint256"
        }
      ],
      "name": "price",
      "outputs": [
        {
          "internalType": "uint256",
          "name": "",
          "type": "uint256"
        }
      ],
      "stateMutability": "view",
      "type": "function",
      "constant": true
    }
  ],
  "bytecode": "0x608060405234801561001057600080fd5b506040516105f13803806105f18339818101604052602081101561003357600080fd5b8101908080519060200190929190505050806000806101000a81548173ffffffffffffffffffffffffffffffffffffffff021916908373ffffffffffffffffffffffffffffffffffffffff1602179055505061055d806100946000396000f3fe60806040526004361061003f5760003560e01c806315770f92146100445780632071a9f41461006f578063b7b0422d146100d2578063b8c876b114610114575b600080fd5b34801561005057600080fd5b50610059610179565b6040518082815260200191505060405180910390f35b34801561007b57600080fd5b506100bc6004803603606081101561009257600080fd5b8101908080359060200190929190803590602001909291908035906020019092919050505061017f565b6040518082815260200191505060405180910390f35b6100fe600480360360208110156100e857600080fd5b81019080803590602001909291905050506101f0565b6040518082815260200191505060405180910390f35b34801561012057600080fd5b506101636004803603602081101561013757600080fd5b81019080803573ffffffffffffffffffffffffffffffffffffffff1690602001909291905050506103e0565b6040518082815260200191505060405180910390f35b60015481565b6000806101976103e5866103f890919063ffffffff16565b905060006101ae84836103f890919063ffffffff16565b905060006101d8836101ca6064896103f890919063ffffffff16565b61047e90919063ffffffff16565b90508082816101e357fe5b0493505050509392505050565b60008060015414610269576040517f08c379a000000000000000000000000000000000000000000000000000000000815260040180806020018281038252601f8152602001807f4445583a696e6974202d20616c7265647920686173206c69717569646974790081525060200191505060405180910390fd5b47600181905550600154600260003373ffffffffffffffffffffffffffffffffffffffff1673ffffffffffffffffffffffffffffffffffffffff168152602001908152602001600020819055506000809054906101000a900473ffffffffffffffffffffffffffffffffffffffff1673ffffffffffffffffffffffffffffffffffffffff166323b872dd3330856040518463ffffffff1660e01b8152600401808473ffffffffffffffffffffffffffffffffffffffff1673ffffffffffffffffffffffffffffffffffffffff1681526020018373ffffffffffffffffffffffffffffffffffffffff1673ffffffffffffffffffffffffffffffffffffffff1681526020018281526020019350505050602060405180830381600087803b15801561039257600080fd5b505af11580156103a6573d6000803e3d6000fd5b505050506040513d60208110156103bc57600080fd5b81019080805190602001909291905050506103d657600080fd5b6001549050919050565b60026020528060005260406000206000915090505481565b60008083141561040b5760009050610478565b600082840290508284828161041c57fe5b0414610473576040517f08c379a00000000000000000000000000000000000000000000000000000000081526004018080602001828103825260218152602001806105076021913960400191505060405180910390fd5b809150505b92915050565b6000808284019050838110156104fc576040517f08c379a000000000000000000000000000000000000000000000000000000000815260040180806020018281038252601b8152602001807f536166654d6174683a206164646974696f6e206f766572666c6f77000000000081525060200191505060405180910390fd5b809150509291505056fe536166654d6174683a206d756c7469706c69636174696f6e206f766572666c6f77a26469706673582212207a8150e73e9dc7a03d6dfc3fcb8872b60fc0ac5e9eb26fb30e03976ef657739f64736f6c63430006060033",
  "immutableReferences": {},
  "source": "pragma solidity 0.6.6;\n\nimport \"@openzeppelin/contracts/math/SafeMath.sol\";\nimport \"@openzeppelin/contracts/token/ERC20/IERC20.sol\";\n\ncontract DEX {\n    using SafeMath for uint256;\n    IERC20 token;\n\n    uint256 public totalLiquidity;\n\n    mapping(address => uint256) public liquidity;\n\n    constructor(address token_addr) public {\n        token = IERC20(token_addr);\n    }\n\n    function init(uint256 tokens) public payable returns (uint256) {\n        require(totalLiquidity == 0, \"DEX:init - alredy has liquidity\");\n        totalLiquidity = address(this).balance;\n        liquidity[msg.sender] = totalLiquidity;\n        require(token.transferFrom(msg.sender, address(this), tokens));\n        return totalLiquidity;\n    }\n\n    function price(\n        uint256 input_amount,\n        uint256 input_reserve,\n        uint256 output_reserve\n    ) public view returns(uint256) {\n        uint256 input_amount_with_fee = input_amount.mul(997);\n        uint256 numerator = input_amount_with_fee.mul(output_reserve);\n        uint256 denominator = input_reserve.mul(100).add(input_amount_with_fee);\n        return numerator / denominator;\n    }\n}\n",
  "sourcePath": "/Users/tarasrohovets/Success/blockchain/ethereum_defi_app/dex_app/src/contracts/DEX.sol",
  "compiler": {
    "name": "solc",
    "version": "0.6.6+commit.6c089d02.Emscripten.clang"
  },
  "schemaVersion": "3.2.4",
  "updatedAt": "2020-10-09T21:22:32.562Z",
  "networkType": "ethereum",
  "devdoc": {
    "methods": {}
  },
  "userdoc": {
    "methods": {}
  }
}